:020000040800F2
:10C200005013002045C3000813DC000865DA00085D
:10C2100011DC000893C4000859E300080000000086
:10C2200000000000000000000000000009DD000820
:10C23000B7C400080000000049DC00080BDD00085E
:10C240005FC300085FC300085FC300085FC3000846
:10C250005FC300085FC300085FC300085FC3000836
:10C260005FC300085FC300085FC300085FC3000826
:10C270005FC300085FC300085FC300085FC3000816
:10C280005FC300085FC300085FC300085FC3000806
:10C290005FC300085FC300085FC300085FC30008F6
:10C2A0005FC300085FC300085FC300085FC30008E6
:10C2B0005FC30008B5DD00085FC300085FC3000866
:10C2C0005FC300085FC300085FC300085FC30008C6
:10C2D0005FC300084DE300085FC300085FC30008A8
:10C2E0005FC300085FC300085FC300085FC30008A6
:10C2F0005FC300085FC300085FC300085FC3000896
:10C300005FC300085FC300085FC300085FC3000885
:10C310005FC3000839DF00085FC300085FC300087F
:10C320005FC300085FC300085FC300085FC3000865
:10C33000DFF80CD000F08CF8004800472DEA000828
:10C34000501300200648804706480047FEE7FEE7F6
:10C35000FEE7FEE7FEE7FEE7FEE7FEE7FEE7FEE7B5
:10C360006DDD000831C300082DE9F05F05460020AF
:10C3700092469B4688460646814640241BE0284656
:10C3800041464746224600F020F853465A46C01A16
:10C39000914110D311461846224600F04AF82D1A52
:10C3A00067EB01084F4622460120002100F041F8CA
:10C3B00017EB00094E41201EA4F10104DFDC4846C2
:10C3C00031462A464346BDE8F09F202A04DB203A46
:10C3D00021FA02F00021704721FA02F3D040C2F1A5
:10C3E0002002914008431946704740EA01039B0729
:10C3F00003D009E008C9121F08C0042AFAD203E0DA
:10C4000011F8013B00F8013B521EF9D27047D2B23D
:10C4100001E000F8012B491EFBD270470022F6E72D
:10C4200010B513460A4604461946FFF7F0FF2046AA
:10C4300010BD202A04DB203A00FA02F100207047E8
:10C440009140C2F1200320FA03F319439040704752
:10C45000064C074D06E0E06840F0010394E8070051
:10C4600098471034AC42F6D3FFF766FFA8EB0008FC
:10C47000C8EB000810B500F01BFB01F048FC01F010
:10C48000FFFA01F08FFB01F03FFDBDE8104001F025
:10C4900037BBFEE7022001F011BD002001F00EBD08
:10C4A00010B5012001F00AFD002803D1BDE81040BD
:10C4B00000F0A0B810BD704701A001F04FBF000010
:10C4C0004552524F523A20656E7465722045727221
:10C4D0006F725F48616E646C6572202121210A00D1
:10C4E00006490020C8610648016941F00401016164
:10C4F000016941F04001016170470000180000200F
:10C5000000200240064A0021D16106490A6942F032
:10C5100002020A614861086940F040000861704702
:10C520001800002000200240044B0022DA61044A77
:10C53000136943F001031361018070471800002064
:10C540000020024014480022C168CB06134904D5DC
:10C55000CA6942F00202CA611022C3685B0705D5AE
:10C56000CB6943F00103CB6142F00402C369DB07EE
:10C5700007D0CB6943F00403CB61C16921F001010D
:10C58000C161A2F58071013901D0C2607047C169F3
:10C5900021F00101C1617047002002401800002015
:10C5A00070B5054600F076FA0646114C09E0681CA5
:10C5B00007D025B100F06EFA801BA84201D90320F4
:10C5C00070BDE068C007F2D1E068800601D5202088
:10C5D000E060E068C00605D4E069C00702D1E06809
:10C5E000400703D5FFF7AEFF012070BD002070BDEE
:10C5F000002002404FF48071014800F041BA000071
:10C60000000801402DE9F05F90F821100024022974
:10C6100003D004218163012485E001680A6822F0C7
:10C620000E020A6001680A6822F001020A603F4EA9
:10C630003E4FB215DFF8F4C0DFF8F090DFF8ECA061
:10C64000DFF8E8B0DFF8E4E00168783F1301150295
:10C65000ACF1640CA9F15009AAF13C0AABF1280B2A
:10C66000AEF1140E4FF48018B14227D9B9420ED062
:10C67000614512D049451DD0514518D0594518D0B3
:10C68000714501D1424615E0294EB14201D1012246
:10C6900010E0274E1436B14201D110220AE0244E98
:10C6A0002836B14206D0224A3C32914201D11A4684
:10C6B00000E02A461E49091F0A602BE0B94213D048
:10C6C000614517D0494522D051451DD059451DD04F
:10C6D000714501D142461AE0B14202D14FF0807259
:10C6E00015E0134EB14201D1012210E0104E143674
:10C6F000B14201D110220AE00D4E2836B14206D0D7
:10C700000B4A3C32914201D11A4600E02A460749C1
:10C7100080394A60012180F82110002180F8201022
:10C72000416B01B188472046BDE8F09F8000024080
:10C73000080402402DE9F047054626480F46012629
:10C74000017E01290FD00121814601762868DFF89A
:10C7500088804CF25034022808D0A2462046FFF7C9
:10C760001FFFA8B131E00220BDE8F0872046FFF7A7
:10C7700017FF08BB0120FFF7B3FE2046FFF710FFAD
:10C78000D8F81010064621F00401C8F810101CE07B
:10C790004FF0FF303860AC6811E02046FFF7B2FE82
:10C7A0005046FFF7FDFED8F81010060021F00201F8
:10C7B000C8F8101001D03C6007E004F50064D5E92A
:10C7C000020100EBC120A042E7D8002189F818102F
:10C7D0003046C9E7180000200020024003480169E4
:10C7E00041F08001016100207047000000200240FC
:10C7F0002DE9F05F07461C4888460024017E154657
:10C800001E46012909D00121814601764CF2503A99
:10C810005046FFF7C5FE18B122E00220BDE8F09FA8
:10C82000012F02D0022F00D00427D346DFF83CA00E
:10C83000220128463146FFF7C8FD81B208EB4400CB
:10C84000FFF772FE5846FFF7ABFEDAF8102022F031
:10C850000102CAF8102018B9641CE4B2BC42E7D344
:10C86000002289F81820D9E7180000200020024093
:10C87000064900200A69120607D5054A4A60054A9A
:10C880004A600969090600D501207047002002406E
:10C8900023016745AB89EFCD2DE9F84FDFF8B8A14B
:10C8A00000220AF1040B144601274FF00F090BF187
:10C8B000040E00BF0B6807FA04F52B40AB4274D19D
:10C8C000DFF898C14E68A6EB0C0866452BD00DDC4E
:10C8D000032E34D005DC36B3012E19D0022E2FD111
:10C8E0001BE0112E16D0122E2AD119E0B8F5881FA0
:10C8F00019D006DCB8F5803F15D0B8F5801F1FD1E0
:10C9000011E0B8F5001F0ED0B8F5041F18D10AE0E9
:10C91000CA6815E0CA68121D12E0CA6808320FE042
:10C92000CA680C320CE08A682AB1012A4FF008026A
:10C9300003D0456104E0042202E0056100E000222A
:10C94000FF2B01D8064601E000F104064FEA8405FA
:10C9500001D9A5F12005D6F800C009FA05F82CEA9E
:10C96000080C02FA05F54CEA050CC6F800C04D6843
:10C97000ED006AD53A4DAE6946F00106AE61AD698B
:10C9800024F0030605F001050095364D06EB050C75
:10C99000DCF80850A6074FEA167809FA08F6B543FE
:10C9A000314EB04202D100261AE04EE02F4EB04286
:10C9B00001D1012614E02E4EB04201D102260FE033
:10C9C0002C4EB04201D103260AE02B4EB04201D1D9
:10C9D000042605E0294EB04201D1052600E00626D6
:10C9E00006FA08F62E43CCF808604D68DAF80060C5
:10C9F000ED03554601D51E4300E09E432E604D6871
:10CA0000AD0305D5DBF800601E43CBF8006004E001
:10CA1000DBF800509D43CBF800504D68DEF8006015
:10CA2000ED02754601D51E4300E09E432E604D6821
:10CA3000AD0205D5084D0C352E681E432E6004E06E
:10CA4000054E0C3635689D433560641C102CFFF490
:10CA500031AFBDE8F88F0000000401400000111064
:10CA6000001002400000014000080140000C01409D
:10CA7000001001400014014000180140001C01405A
:10CA8000C2684A40C26070470AB101617047090438
:10CA9000FBE70000014880687047000004000020A8
:10CAA00002488168027811448160704704000020C8
:10CAB000074810B5016841F010010160032000F043
:10CAC00073F8002000F006F800F024F8002010BDF4
:10CAD0000020024070B50D4D04464FF47A7128785D
:10CAE000B1FBF0F00A490968B1FBF0F000F0FCFA84
:10CAF00048B9102C07D200222146501E00F034F80D
:10CB000000206C6070BD012070BD0000040000209A
:10CB1000000000200C4808B5816941F001018161E5
:10CB2000816901F001010091C16941F08051C16149
:10CB3000C06900F0805000900448416821F0E06135
:10CB400041F00071416008BD00100240000001404A
:10CB500000F01F02012191404009800000F1E02017
:10CB6000C0F8001170470000F0B40E4B1B680C4673
:10CB7000C3F30223C3F10705042D00D90425191DB1
:10CB8000072901D2002300E0DB1E012606FA05F189
:10CB9000491E214099409E40761E16403143F0BC0C
:10CBA00001F038B80CED00E0064900F00702086813
:10CBB0004FF6FF03184040EA0220034A1043086082
:10CBC000704700000CED00E00000FA052DE9F04789
:10CBD000DFF8548105460E46D8F8000000F0070043
:10CBE000B0420CD2D8F8001021F007013143C8F848
:10CBF0000010D8F8000000F00700B0426FD128689C
:10CC00004A4C810712D5400703D5606840F4E060C4
:10CC100060602878000703D5606840F46050606069
:10CC20006068A96820F0F000084360602878C007B9
:10CC300044D06868012816D02168022816D08907D8
:10CC400000294CDA616821F0030101436160FFF7BC
:10CC500021FF6968074641F2883001290ED0022978
:10CC6000814618D026E021688903E9E78901E7E7D2
:10CC7000FFF710FFC11B494501D918E081466068E4
:10CC8000C0F381000128F3D118E000BFFFF702FFD5
:10CC9000C11B49450BD86068C0F381000228F5D15B
:10CCA0000CE000BFFFF7F6FEC11B494502D9032087
:10CCB000BDE8F087606810F00C0FF3D1D8F80010D1
:10CCC000404601F00701B1420BD9016821F007018C
:10CCD00031430160006800F00700B04201D001203C
:10CCE000E6E72878400705D56068E96820F4E06049
:10CCF000084360602878000706D56068296920F439
:10CD0000605040EAC100606000F036F86168084A8F
:10CD1000C1F30311515CC840064908600020FFF7C9
:10CD2000D9FE0020C4E700000020024000100240AD
:10CD3000AEEA000800000020044805490068496880
:10CD4000044AC1F30221515CC84070470000002032
:10CD500000100240BEEA000804480549006849681E
:10CD6000044AC1F3C221515CC84070470000002052
:10CD700000100240BEEA000812A185B00FC98DE87C
:10CD80000F0014A0144A006804905168134801F081
:10CD90000C03042B10D0082B0ED1C1F38343C9031D
:10CDA0001DF803000AD5516804AAC1F34041515C43
:10CDB0000A4A5043B0FBF1F005B0704708494843B8
:10CDC000FAE7000002030405060708090A0B0C0D28
:10CDD0000E0F1010010200000010024000127A0035
:10CDE00000093D002DE9F84F04460078B94DC00711
:10CDF00048D06868C0F38100012807D06868C0F394
:10CE00008100022809D16868C00306D5286880031C
:10CE100038D5606800286FD034E06068B0F5803F96
:10CE20000BD010B1B0F5A02F11D0286820F48030BD
:10CE30002860286820F4802002E0286840F48030D0
:10CE40002860606888B1FFF725FE064609E028687B
:10CE500040F480202860F0E7FFF71CFE801B642868
:10CE600075D828688003F7D50CE0FFF713FE064657
:10CE700005E000BFFFF70EFE801B6428F0D828688D
:10CE80008003F7D42078944E80074FF001094FF0CB
:10CE900000083BD5686810F00C0F07D06868C0F335
:10CEA0008100022809D16868C00306D42868800779
:10CEB00014D5206901281FD110E02069B0B1C6F84F
:10CEC0000090FFF7E7FD074605E000BFFFF7E2FD32
:10CED000C01B0228C4D828688007F7D52868616974
:10CEE00020F0F80040EAC10028600FE0C6F800809A
:10CEF000FFF7D0FD074606E0E9E000BFFFF7CAFDF7
:10CF0000C01B022823D828688007F7D420780007A0
:10CF10002CD57248A169D9B1C0F80090FFF7BAFDCD
:10CF2000074604E0FFF7B6FDC01B02280FD8686A69
:10CF30008007F7D56A484FF4FA510068B0FBF1F06A
:10CF4000009000BF0098411E0091FAD20EE080E0F0
:10CF5000C0F80080FFF79EFD074604E0FFF79AFD4A
:10CF6000C01B022875D8686A8007F7D4207840076C
:10CF700060D5E8690027C00008D4E86940F0805017
:10CF8000E861E869012700F0805000905548016889
:10CF9000C90513D40168834641F480710160FFF72D
:10CFA00079FD824606E000BFFFF774FDA0EB0A00A2
:10CFB00064284ED8DBF80000C005F5D5E0680128EC
:10CFC0000AD008B1052813D0286A20F00100286291
:10CFD000286A20F0040002E0286A40F0010028627C
:10CFE000E06841F2883B98B1FFF754FD82460BE0C0
:10CFF000286A40F004002862EEE700BFFFF74AFD10
:10D00000A0EB0A0159455AD8286A8007F6D50CE0EA
:10D01000FFF740FD824605E0FFF73CFDA0EB0A016B
:10D0200059454CD8286A8007F6D41FB1E86920F02A
:10D030008050E861E06988B36968C1F38101022921
:10D0400045D00228C6F8608004D0FFF723FD0446CF
:10D0500038E034E0FFF71EFD074604E0FFF71AFD55
:10D06000C01B02282BD828688001F7D4206AB0F5AD
:10D07000803F05D16868A16820F4003008436860EB
:10D08000D4E908010843696821F474110843686011
:10D09000C6F86090FFF7FEFC044606E015E000BF0E
:10D0A000FFF7F8FC001B022809D828688001F7D593
:10D0B0000BE000BFFFF7EEFC001B022802D90320A3
:10D0C000BDE8F88F28688001F4D40020F8E701203B
:10D0D000F6E7000000100240000042428004424295
:10D0E000000000200070004010B5401EB0F1807FAD
:10D0F00001D3012010BD4FF0E02460610F216017C3
:10D1000000F088FD0020A06107202061002010BDF4
:10D110007047704730B590F83C20012A20D001229A
:10D1200080F83C20022380F83D3003685C6824F0DE
:10D1300070045C6003685C680D682C435C60036885
:10D140009C6824F080049C6003689C6849680C43D8
:10D150009C6080F83D20002180F83C10084630BDDE
:10D16000022030BD10B5040003D094F83D0010B18A
:10D1700007E0012010BD002084F83C00204600F0AC
:10D180000DF8022084F83D00211D206800F018FEF3
:10D19000012084F83D00002010BD000008B5114AB0
:10D1A00001681148914211D1C16941F00201C16188
:10D1B000C069002200F00200009011461D20FFF718
:10D1C000D3FCBDE808401D20FFF7C2BC074A9142CE
:10D1D00007D1C16941F00401C161C06900F00400D8
:10D1E000009008BD0004004000100240000800400C
:10D1F0000168CA6842F00102CA600068016841F033
:10D20000010101600020704770B5044690F83C00B1
:10D21000012817D0012584F83C50022084F83D00F5
:10D220002068826822F0770222F47F4282600868D8
:10D23000502837D00DDC202859D005DC88B31028C1
:10D2400041D151E0022070BD302853D040283AD15E
:10D250003FE060282ED070280BD0B0F5805F03D05F
:10D26000B0F5005F2FD110E02068816821F0070140
:10D2700015E0CB68D1E90121206800F0E7FD2168C5
:10D28000886840F0770088601DE0CB68D1E9012113
:10D29000206800F0DBFD2068816841F480418160F6
:10D2A00011E01EE0CA684968206800F0E1FD5021E5
:10D2B000206806E0CA684968206800F0EAFD60213D
:10D2C000206800F0CDFD84F83D50002084F83C003B
:10D2D00070BDCA684968206800F0CAFD4021206816
:10D2E000EFE700212068ECE710212068E9E7202122
:10D2F0002068E6E730212068E3E7704770B5044610
:10D30000006801694FF00005C943890715D4C16859
:10D31000C943890711D4E91E0161012020772068E3
:10D3200080698007204602D0FFF7E7FF04E000F0A5
:10D3300098F8204600F096F8257720680169C943DF
:10D34000490717D4C168C943490713D46FF00401D2
:10D350000161022020772068806910F4407F204618
:10D3600002D0FFF7CAFF04E000F07BF8204600F08F
:10D3700079F8257720680169C943090716D4C1687F
:10D38000C943090712D46FF0080101610420207716
:10D390002068C0698007204602D0FFF7AEFF04E096
:10D3A00000F05FF8204600F05DF8257720680169FD
:10D3B000C943C90617D4C168C943C90613D46FF05D
:10D3C00010010161082020772068C06910F4407FB7
:10D3D000204602D0FFF791FF04E000F042F820461B
:10D3E00000F040F8257720680169C943C90708D1D2
:10D3F000C168C943C90704D1891E0161204600F0F4
:10D4000033F820680169C943090609D4C168C943D2
:10D41000090605D46FF0800101612046FFF778FE10
:10D4200020680169C943490609D4C168C94349064E
:10D4300005D46FF040010161204600F097F82068A4
:10D440000169C94389060BD4C168C943890607D459
:10D450006FF0200101612046BDE87040FFF759BE22
:10D4600070BD70477047000030B52D4989B0D1E9D3
:10D470000023CDE90423D1E90223CDE90223D1E938
:10D480000421CDE90621274A006800211268904254
:10D4900044D124481438012401EB410230F8123001
:10D4A0005B1C9BB220F8123000EB42029588AB4225
:10D4B00000D39470491C0329EEDB00240DF108050C
:10D4C00055F8240038B390F8060220B304A850F8A9
:10D4D0002400804755F824000122B0F802120144CC
:10D4E00006A850F8240000F0E9F9021E02D04FF01F
:10D4F000010001E04FF0000055F8241081F8060209
:10D5000001D109A000E00AA0054900902346183186
:10D5100009A000F023FF641C022CD1DB09B030BD50
:10D52000C8EA00084C0000207375636365737300DC
:10D530006661696C656400002573202D205B72654F
:10D54000743D25645D3A2048414C5F554152545F1B
:10D55000526563656976655F4954206875617274C8
:10D560005B25645D2025730A000000007047000001
:10D57000F8B50446C06B00283AD0E26B1D491EA0E6
:10D5800000F0ECFEE06B28B100200026042807DC48
:10D5900018B107E04FF00100F7E7022806D101E0DB
:10D5A000082803D120680168406800901F48844221
:10D5B00014D100F1800500F00FFBB5F80202012242
:10D5C0004119204600F07AF980B1012685F80662FB
:10D5D000BDE8F840074916A000F0C0BE134840302F
:10D5E000844205D1BDE8F84000F0C0BA85F8066273
:10D5F000F8BD000020EB000825733A202D2D2D2DBD
:10D600002D2D2D2D2D2D20646562756720656E747E
:10D610006572202B2B205B4572723A2025645D20B9
:10D620002D2D2D2D2D2D2D2D2D2D0A008C00002082
:10D6300025733A2048414C5F554152545F5265630F
:10D64000656976655F49542068756172742066610A
:10D65000696C65640A00000070B5026804461068D1
:10D66000D168536910F00F0F51D003F0010501F498
:10D67000907635435DD0C20705D0CA0503D5E26B6D
:10D6800042F00102E263420705D5DA0703D0E26BFC
:10D6900042F00202E263820705D5DA0703D0E26BAB
:10D6A00042F00402E263020705D5DA0703D0E26B19
:10D6B00042F00802E263E26B002A34D0800604D50F
:10D6C000880602D5204600F0D9FC20684069E16B4D
:10D6D000C0F3801001F008010143204624D000F07F
:10D6E00039FC2068416949061AD5416921F0400199
:10D6F0004161606BA0B11B494163606BFEF782FF23
:10D70000002810D0606B416BBDE87040084783066D
:10D710000FD58B060DD52046BDE8704000F0AEBC9D
:10D720002046FFF725FF70BDFFF722FF0020E063D2
:10D7300070BD030606D50B0604D52046BDE8704033
:10D7400000F0A0BD4006F3D54806F1D5D1682046CB
:10D7500021F04001D160202184F8391000F081F9D6
:10D7600070BD000045DF000870B5040004D094F8D7
:10D770003900002510B106E0012070BD84F8385052
:10D78000204600F023F8242084F839002068C1687E
:10D7900021F40051C160204600F0BCFC2068016902
:10D7A00021F4904101612068416921F02A01416121
:10D7B0002068C16841F40051C160E563202084F80D
:10D7C000390084F83A00002070BD000030B585B003
:10D7D00000240094019402940394324D036832486B
:10D7E00002210322AB4227D1836943F48043836142
:10D7F000836903F480430493836943F004038361E2
:10D8000080692A4D00F0040004900802CDE900016F
:10D81000039269462846FFF73FF82815CDE9000432
:10D82000694628460294FFF737F800221146252062
:10D83000FFF79AF9252030E01D4DAB422FD1C36987
:10D8400043F48013C361C36903F4801304938369B1
:10D8500043F010038361836903F010030493836929
:10D8600043F0200383618069039200F0200004905C
:10D87000A814CDE9000169460E48FFF70DF8042011
:10D88000CDE9000469460C480294FFF705F8002230
:10D8900011463520FFF768F93520FFF759F905B033
:10D8A00030BD000000380140001002400008014077
:10D8B00000500040001001400014014090F83A3040
:10D8C000202B01D002207047C9B1C2B1816282858C
:10D8D000C2850021C163222180F83A100168CA681C
:10D8E00042F48072CA6001684A6942F001024A61EA
:10D8F0000068C16841F02001C1600020704701202C
:10D900007047000070B51C49884233D101F1800492
:10D910004FF40072B4F804120025491CA4F8041254
:10D92000B4F80212491C89B2A4F80212914201D340
:10D93000A4F80252B4F80232B4F800128B4207D1B4
:10D94000491C89B2A4F80012914201D3A4F80052F4
:10D95000B4F8021201222144FFF7B0FF40B10125C3
:10D9600084F80652BDE87040044905A000F0F6BCFA
:10D9700084F8065270BD00008C00002008EB0008FF
:10D9800025733A2048414C5F554152545F526563BC
:10D99000656976655F4954206875617274206661B7
:10D9A000696C65640A0000002DE9F843044690F8AC
:10D9B00039001F4616460D46202850D1A5B19EB10C
:10D9C00094F8380001284AD0012084F838004FF03C
:10D9D0000008C4F83C80212084F83900FFF75AF889
:10D9E000A6848146E68426E00120BDE8F883E08C29
:10D9F000401EE084A0684B46B0F5805F4FF0000207
:10DA00004FF080012046009703D000F06CFCE8B98D
:10DA10000DE000F068FCC8B928882168C0F3080050
:10DA20004860206908B16D1C05E0AD1C03E0216869
:10DA300015F8010B4860E08C0028D8D14B46002235
:10DA400040212046009700F04EFC08B10320CCE7AF
:10DA5000202084F8390084F838800020C5E70220AF
:10DA6000C3E77047FEE740B13AB1026042608260AE
:10DA700001611144C160012070474FF0FF307047D1
:10DA800030B585B0002000900190029003901A48B4
:10DA9000816941F010018161816901F010010491F7
:10DAA000816941F020018161816901F020010491C7
:10DAB000816941F004018161816901F004010491EF
:10DAC000816941F0080181618069012200F008004C
:10DAD0000A4D1402049021462846FEF7D5FF012185
:10DAE0000320CDE90210CDE9004169462846FEF742
:10DAF000D3FE05B030BD0000001002400008014018
:10DB000010B586B000241848009401940294039440
:10DB100004941449059401604721C0E9011440F2BE
:10DB2000E731C0E9031480218161FFF71BFB08B1D5
:10DB3000FEF7C2FC4FF48050009069460A48FFF798
:10DB400063FB08B1FEF7B8FC049404A906480594E9
:10DB5000FFF7E0FA08B1FEF7AFFC0348FFF748FB18
:10DB600006B010BD000400404C0000200C4810B569
:10DB70000A4901604FF4E1314160002181600C22CB
:10DB8000C160C0E904128161C161FFF7EDFD0028A9
:10DB900003D0BDE81040FEF78FBC10BD0050004020
:10DBA000CC00002010B500F017F8FFF7DFFF4FF4AE
:10DBB00002710848FEF732FC064C0122B4F802025A
:10DBC0000119A4F18000FFF779FE00B1012084F86B
:10DBD000060210BD0C0100200C4810B50A49016076
:10DBE0004FF4E1314160002181600C22C160C0E945
:10DBF00004128161C161FFF7B7FD002803D0BDE8C1
:10DC00001040FEF759BC10BD003801408C000020C8
:10DC1000FEE770470907090E002806DA00F00F003A
:10DC200000F1E02080F8141D704700F1E02080F83A
:10DC300000147047024A11400143024801607047D6
:10DC400080FFFF1F08ED00E0704720B101684160D0
:10DC50008160012070474FF0FF30704728B1D0E954
:10DC600001218A4204D3501A70474FF0FF307047A9
:10DC70000069511A084470472DE9F04115460F46D6
:10DC800040B13DB106464FF000081046FFF7E6FFF1
:10DC900020B11FE04FF0FF30BDE8F0812846FFF7CC
:10DCA000D4FF17E0284600F019F8B84200DB3846E8
:10DCB000041E11DD224631466868FEF796FB68684F
:10DCC0003F1B20446860E9682644A044884201D391
:10DCD00028686860002FE5DC4046DDE7010010D0D1
:10DCE000D1E901208242A2EB000001D20B69184465
:10DCF0000B69C968181A891A401E884200DB084659
:10DD000070474FF0FF3070477047FEF7C9BE30B51F
:10DD10008FB028216846FEF781FB14210AA8FEF780
:10DD20007DFB01210804CDE90010002402940225A6
:10DD30000491CDE907504FF4E01009906846FFF7D1
:10DD400051F808B1FEF7B8FB0F20CDE90A054FF4F2
:10DD50008060CDE90C4002210AA80E94FEF736FF40
:10DD6000002801D0FEF7A8FB0FB030BD0D480168B8
:10DD700041F00101016041680B4A114041600168B6
:10DD80000A4A11400160016821F480210160416864
:10DD900021F4FE0141604FF41F0181600449C0037A
:10DDA00008607047001002400000FFF8FFFFF6FE19
:10DDB00008ED00E00148FFF7A1BA00004C00002088
:10DDC000F0B502681C4B1D4D1D4E1E4F1E4C4FF0F2
:10DDD000804C984209D0A04207D0604505D0A842A7
:10DDE00003D0B04201D0B84204D122F0700E4A688C
:10DDF00042EA0E02984209D0A04207D0604505D001
:10DE0000A84203D0B04201D0B84203D122F44075F9
:10DE1000CA682A4322F080054A692A4302608A6858
:10DE2000C2620A688262984201D0A04201D10969A7
:10DE3000016301214161F0BD002C0140000400405C
:10DE400000080040000C00400034014010B5846818
:10DE500042EA032224F47F440A432243826010BD35
:10DE6000826822F070020A4342F007018160704725
:10DE700010B5036A046A24F001040462846924F082
:10DE8000F00444EA021423F00A020A4384610262A5
:10DE900010BD10B5036A23F0100303628369046A9E
:10DEA00023F4704343EA023224F0A00343EA011151
:10DEB0008261016210BD00F0F8BD00000321B0FBDB
:10DEC000F1F201FB120202EB42030E4A10B502EB23
:10DED00043039B789BB1B0FBF1F301FB130303EB0E
:10DEE000430302EB43040023A370B0FBF1F401FBF6
:10DEF000140000EB400022F81030184610BD4FF01F
:10DF0000FF3010BD3800002010B5002109480A4636
:10DF100001EB410300EB4304491CA27020F81320DD
:10DF20000329F5DB4FF4FA618180C82141810A2180
:10DF3000018210BD380000200148FFF78DBB0000B2
:10DF4000CC00002010B5406A0021C185C184FFF7D4
:10DF50000FFB10BD0168CA6822F49072CA600168A4
:10DF60004A6922F001024A61202180F83A10704784
:10DF70002DE9F047002615468946012803D0741E76
:10DF8000052819D11BE0304CB4F80402002858D001
:10DF90002146B4F80002B4F80272B1F800224FF042
:10DFA00000081144B8420FD2A7EB0000A84200DCE1
:10DFB0000546AEB232460EE02046BDE8F087234962
:10DFC00023A000F0CBF9F7E737D9C0F50070A842DD
:10DFD0000FDD2E462A464846FEF707FAB4F800023F
:10DFE0003044A4F80002B4F80402801BA4F8040230
:10DFF00027E086B232464846FEF7F7F9A4F80082D9
:10E00000B4F80402801BA4F80402A81BB84200DA8A
:10E010000746BDB209EB06002A462146FEF7E5F9A0
:10E02000B4F800022844A4F80002B4F80402401B2B
:10E03000A4F80402701986B203E0A4F80072A4F8F0
:10E0400004823046B9E700000C010020FEEA000817
:10E050004552524F523A2025733A204E6F74207326
:10E060007570706F72742074686973207561727452
:10E07000284E554C4C29202121210A0010B590F83A
:10E080003A10222901D0022010BD8168B1F5805FCD
:10E0900011D00169002901681FD0496801F07F0390
:10E0A000816A4A1C82620B70C18D491E0904090CE9
:10E0B000C18518D02BE00269816A002A0268526883
:10E0C00005D0D2B20A80816A491C8162ECE7C2F3B2
:10E0D00008020A80816A891CF7E74A68816A4B1C3A
:10E0E00083620A70E0E70168CA6822F02002CA6011
:10E0F0000168CA6822F48072CA6001684A6922F025
:10E1000001024A61202180F83A10FFF7FBFB002052
:10E1100010BD00002DE9F041044600680169E26885
:10E1200021F44051114301612169A06808436169EC
:10E1300008432168CA6841F20C639A430243CA60EB
:10E1400020684169A26921F44071114341614C4941
:10E1500020686425322688423CD1FEF7FDFD00EBA5
:10E16000C00101EB001061688900B0FBF1F7FEF718
:10E17000F3FD00EBC00101EB00106168B0468900BF
:10E18000B0FBF1F0B0FBF5F06FF01801484307EB7E
:10E19000800106EB0110B0FBF5F000F0F006FEF791
:10E1A000DBFD00EBC00101EB001061688900B0FBF2
:10E1B000F1F0B0FBF5F006EB0016FEF7CDFD00EB3D
:10E1C000C00101EB001061688900B0FBF1F7FEF7B8
:10E1D000C3FD3BE0FEF7B0FD00EBC00101EB00101A
:10E1E00061688900B0FBF1F7FEF7A6FD00EBC00106
:10E1F00001EB00106168B0468900B0FBF1F0B0FBA4
:10E20000F5F06FF01801484307EB800106EB0110B1
:10E21000B0FBF5F000F0F006FEF78EFD00EBC0015C
:10E2200001EB001061688900B0FBF1F0B0FBF5F084
:10E2300006EB0016FEF780FD00EBC00101EB0010BD
:10E2400061688900B0FBF1F7FEF776FD00EBC001D5
:10E2500001EB001061688900B0FBF1F0B0FBF5F054
:10E260006FF01801484307EB800108EB0110B0FB89
:10E27000F5F0216800F00F0030448860BDE8F081BF
:10E280000038014090F83910212901D00220704750
:10E290008168B1F5805F016A0BD04A1C0262026896
:10E2A00009785160C18C491E0904090CC1840ED043
:10E2B00017E009880268C1F308015160016900296B
:10E2C000016A02D0491C0162ECE7891CFBE7016886
:10E2D000CA6822F08002CA600068C16841F040014B
:10E2E000C160002070472DE9F041984617460E4660
:10E2F0000446069D1DE0681C1BD02DB1FEF7CAFB2D
:10E30000A0EB0800A84214D92068C16821F4D0719C
:10E31000C1602068416921F001014161202084F839
:10E32000390084F83A00002084F838000320BDE862
:10E33000F0812068006836EA000004D00020B8426E
:10E34000D9D00020F3E70120F9E700000148FFF7EA
:10E3500083B900008C000020FEE700000FB4054BDD
:10E3600010B503A9044A029800F018F810BC5DF833
:10E3700014FB00008DE900081000002002E008C82E
:10E38000121F08C1002AFAD170477047002001E02F
:10E3900001C1121F002AFBD1704700002DE9FF4F79
:10E3A0008DB00F460546002606E025280BD0DDE996
:10E3B0000F1290476D1C761C28780028F5D111B0FB
:10E3C0003046BDE8F08F0024A246A1460122EC4968
:10E3D00000E0044315F8013F203B02FA03F0084235
:10E3E000F7D128782A2810D06FF02F022878A0F1D2
:10E3F0003001092914D80AEB8A0102EB410144F0EB
:10E40000020400EB010A6D1CF0E701CF5FEA000A8D
:10E4100003D544F40054CAF1000A44F002046D1C10
:10E4200028782E2817D115F8010F44F004042A2863
:10E430000ED06FF02F022878A0F1300109290AD8F8
:10E4400009EB890102EB410100EB01096D1CF2E7C8
:10E4500057F8049B6D1C28786C280FD006DC4C28DC
:10E4600017D068280DD06A2814D104E0742810D081
:10E470007A280FD10DE044F400140AE044F480142B
:10E4800001E044F440146978814202D104F580141B
:10E490006D1C6D1C2A786E2A1FD00CDC632A31D0CB
:10E4A00004DC002A8BD0582A11D1A3E0642A68D05A
:10E4B000692A0CD165E0732A2ED004DC6F2A73D050
:10E4C000702A04D19BE0752A6FD0782A6ED010464E
:10E4D000DDE90F129047761C50E1C4F30250022888
:10E4E00006D0032809D0042801CF09D0066045E1F1
:10E4F00001CFF117C0E9006140E101CF06803DE1A5
:10E5000006703BE117F8040B8DF8000000208DF831
:10E510000100EB46012003E057F804BB4FF0FF3049
:10E5200061074FF0000102D40DE008F101018846B7
:10E5300049450FDA8045F8DB1BF808100029F4D1B3
:10E5400008E008F1010188468142FADB1BF8081057
:10E550000029F6D1DDE90F23AAEB08008146214608
:10E5600000F036F9304400EB080604E0DDE90F1254
:10E570001BF8010B9047B8F10108F7D22146484635
:10E58000F7E00A21C4F302534FF0000B0891022B6D
:10E5900004D001CFC117032B09D00AE0FF1D27F0DB
:10E5A0000707F7E8020108E032E01FE020E000B2D0
:10E5B000C117042B01D140B2C117031E71F1000332
:10E5C00007DA4FF0000CD0EB0C006CEB01012D23AF
:10E5D00002E0230504D52B238DF82430012303E02A
:10E5E000E30701D02023F7E7984658E00A2110E01E
:10E5F00010210EE010204FF0000B08900CE01021CD
:10E600004FF0000B44F004044FF00809089103E0B8
:10E6100008214FF0000B0891C4F30253022B04D0E1
:10E6200001CF0021032B06D006E0FF1D27F00707CE
:10E63000F7E8020103E080B2042B00D1C0B24FF032
:10E64000000823072BD5702A07D0DDF820C08CF0F6
:10E65000100C5CEA0B0C05D00EE040238DF8243042
:10E66000012308E050EA010306D030238DF824305E
:10E670008DF8252002239846DDF820C08CF0080C88
:10E680005CEA0B0C0BD150EA010301D1630706D5FC
:10E6900030238DF824304FF00108A9F10109582AE0
:10E6A00004D038A20B9208AA0A920BE03AA2F9E72A
:10E6B0005B46089AFDF758FE0B9B9B5C0A9A521E1C
:10E6C0000A92137050EA0102F2D10A98ADEB0000F1
:10E6D00000F1200B600702D524F4803401E04FF0F4
:10E6E0000109D94502DDA9EB0B0000E0002000EB99
:10E6F0000B0141440890AAEB010AE00306D4DDE9CE
:10E700000F232146504600F063F806444FF00009FD
:10E7100008E009A911F80900DDE90F12904709F195
:10E720000109761CC145F4DBE0030CD5DDE90F23BC
:10E730002146504600F04CF8064404E0DDE90F1293
:10E7400030209047761C0899481E08900029F5DC77
:10E7500008E00A980A990078491C0A91DDE90F122D
:10E760009047761CBBF10001ABF1010BF1DC2146B7
:10E770005046DDE90F2300F019F806446D1C1BE636
:10E780000928010030313233343536373839616287
:10E79000636465660000000030313233343536374B
:10E7A0003839414243444546000000002DE9F0411C
:10E7B000044600251E461746880404D405E0394661
:10E7C0002020B0476D1C641EF9D52846BDE8F081B5
:10E7D0002DE9F041044600251E469046C80301D5A8
:10E7E000302700E02027880404D505E0414638465C
:10E7F000B0476D1C641EF9D52846BDE8F0810000C5
:10E8000038B50022009204460222694600F05CF806
:10E81000BDF800200F2A0FD10A20ADF800000749EB
:10E8200007A0FFF79BFD2146084600F02BF80222C7
:10E830006946204600F054F8002038BD4DEB000832
:10E8400025733A202D2D2D2D2D2D2D2D2D2D2D2DBA
:10E850002073657420706172616D20666C61672041
:10E86000746F206E6F726D616C2072756E204150F6
:10E8700050202D2D2D2D2D2D2D2D2D2D2D2D0A0002
:10E8800000207047F0B585B000250E46044604957B
:10E89000FDF7EEFF012711E0CDE9024704A9684624
:10E8A0000095FDF747FF28B1FDF798FF4FF0FF30C7
:10E8B00005B0F0BDFDF79EFE04F50064B442EBD94F
:10E8C000FDF78CFF0020F3E710B50B0005D00146E3
:10E8D0001846FDF78AFD002010BD4FF0FF3010BD37
:10E8E0002DE9F84F824600260D461446D00701D088
:10E8F000541CA4B2FDF7BCFF1FE000BF95F80080D8
:10E9000095F80190424669F31F22002351460120E9
:10E91000FDF76EFF07000CD0FDF760FF4B46424647
:10E9200009490AA00097FFF719FD4FF0FF30BDE835
:10E93000F88FAD1C0AF1020A761CB6EB540FDDDB32
:10E94000FDF74CFF0020F2E75DEB00084552524F07
:10E95000523A2025733A2070726F6772616D5B25A1
:10E96000642025645D206661696C65642D636F6455
:10E97000655B25645D0A000010B5FFF781FF024862
:10E98000FFF73EFF002010BD0080000813B5642390
:10E99000012269460248FFF707F800981CBD0000F5
:10E9A000CC00002070B50C4C002004F10C05207048
:10E9B000C4E901054FF403612846FDF72FFD01204E
:10E9C0002870A06804F63C024FF48061001DFFF738
:10E9D0004AF8002070BD00001403002010B5054C5B
:10E9E000A068001D00F008F8A068BDE81040001DF8
:10E9F000FFF734B91403002010B504460A48ADF5FA
:10EA0000806D4FF48062806869460078FFF7B0FA45
:10EA10000104090C03D022466846FFF72DF90DF5D5
:10EA2000806D002010BD0000140300204FF442410F
:10EA30008804FFF7FFF8FDF71DFD094909A0FFF75E
:10EA40008DFCFFF799FF00F02BF800BFFFF733FABA
:10EA5000FDF720FDFDF724FDFDF71FFDF6E70000A3
:10EA6000A3EB00080D0A0D0A5B25735D3A202D2DDE
:10EA70002D2D2D2D2D2D2D2D2D2D2D2D2D2D2D20D3
:10EA800048656C6C6F20617070202D2D2D2D2D2D03
:10EA90002D2D2D2D2D2D2D2D2D2D2D0D0A00000070
:10EAA00010B5FFF77FFF002010BDFFF797BF0000F4
:10EAB000000000000000010203040607080900002E
:10EAC0000000010203040000D9DB00086DDB000830
:10EAD0000C010020000000008C000020CC00002071
:10EAE00048414C5F54494D5F506572696F64456C95
:10EAF000617073656443616C6C6261636B00554166
:10EB000052545F524541440048414C5F5541525474
:10EB10005F527843706C7443616C6C6261636B002C
:10EB200048414C5F554152545F4572726F72436168
:10EB30006C6C6261636B006C6F6164415050006685
:10EB40006F7263655F6C6F6164415050006368650C
:10EB5000636B5F706172616D496E666F00637075A3
:10EB6000666C6173685F777269746500637075665F
:10EB70006C6173685F656E61626C6552656164505B
:10EB8000726F7465637400637075666C6173685F3F
:10EB900064697361626C655265616450726F74651B
:10EBA0006374006D61696E00C8EB0008000000200E
:10EBB000140000007CE30008DCEB000814000020D7
:10EBC0003C1300008CE3000800A24A04010000008E
:0CEBD00010000000000000000000000029
:040000050800C331FB
:00000001FF
